:020000040800F2
:10000000002800200D1300089D120008A31200080C
:10001000A9120008AF120008B51200080000000085
:10002000000000000000000000000000BB120008FB
:10003000C712000800000000D3120008DF120008F9
:1000400055130008551300085513000855130008F0
:1000500055130008551300085513000855130008E0
:1000600055130008551300085513000855130008D0
:1000700055130008551300085513000855130008C0
:1000800055130008551300085513000855130008B0
:1000900055130008551300085513000855130008A0
:1000A0005513000855130008551300085513000890
:1000B000ED12000855130008000000005513000859
:1000C0005513000800000000000000005513000850
:1000D0000000000055130008551300080000000040
:1000E00055130008551300085513000800000000C0
:1000F0000000000000000000000000000000000000
:0C01000000000000000000005FF808F1A3
:10010C0010B5054C237833B9044B13B10448AFF345
:10011C0000800123237010BD30000020000000007F
:10012C00A029000808B5034B1BB103490348AFF3E2
:10013C00008008BD0000000034000020A029000849
:10014C0080B500AF01220121114801F00DFC012204
:10015C0020210F4801F008FC012210210C4801F06D
:10016C0003FC012208210A4801F0FEFB0122402178
:10017C00074801F0F9FB01220221054801F0F4FBCC
:10018C0001220421024801F0EFFB00BF80BD00BF3B
:10019C00000C014080B582B000AF78607B68092B01
:1001AC0000F2808101A252F823F000BFE1010008A7
:1001BC002902000871020008B902000801030008B6
:1001CC004903000891030008D90300082104000822
:1001DC006904000801224021B64801F0C5FB002249
:1001EC000121B44801F0C0FB00220221B14801F00A
:1001FC00BBFB00220421AF4801F0B6FB0022082112
:10020C00AC4801F0B1FB00221021AA4801F0ACFB74
:10021C0000222021A74801F0A7FB46E10122012181
:10022C00A44801F0A1FB01222021A24801F09CFB73
:10023C00012210219F4801F097FB012208219D48C3
:10024C0001F092FB012240219A4801F08DFB002223
:10025C000221984801F088FB00220421954801F006
:10026C0083FB22E101222021924801F07DFB012237
:10027C000421904801F078FB002201218D4801F007
:10028C0073FB002202218B4801F06EFB00224021FF
:10029C00884801F069FB00221021864801F064FBBC
:1002AC0000220821834801F05FFBFEE0012220219F
:1002BC00804801F059FB012210217E4801F054FBCB
:1002CC00002201217B4801F04FFB002202217948DA
:1002DC0001F04AFB00224021764801F045FB002248
:1002EC000421744801F040FB00220821714801F000
:1002FC003BFBDAE0012201216E4801F035FB0122C3
:10030C0010216C4801F030FB01220821694801F0F2
:10031C002BFB00222021674801F026FB0022022142
:10032C00644801F021FB00224021624801F01CFBD3
:10033C00002204215F4801F017FBB6E001220221E4
:10034C005C4801F011FB012210215A4801F00CFB12
:10035C0000220121574801F007FB002220215548BB
:10036C0001F002FB00224021524801F0FDFA00226C
:10037C000421504801F0F8FA002208214D4801F000
:10038C00F3FA92E0012202214A4801F0EDFA002230
:10039C000121484801F0E8FA00222021454801F0EB
:1003AC00E3FA00224021434801F0DEFA002210213A
:1003BC00404801F0D9FA002204213E4801F0D4FA59
:1003CC00002208213B4801F0CFFA6EE001222021E7
:1003DC00384801F0C9FA01224021364801F0C4FA2C
:1003EC0001221021334801F0BFFA012208213148C3
:1003FC0001F0BAFA002201212E4801F0B5FA0022D0
:10040C0002212C4801F0B0FA00220421294801F005
:10041C00ABFA4AE000220121264801F0A5FA00229D
:10042C000221244801F0A0FA00220421214801F005
:10043C009BFA002220211F4801F096FA002240214D
:10044C001C4801F091FA002210211A4801F08CFA94
:10045C0000220821174801F087FA26E0012210211A
:10046C00144801F081FA00220121124801F07CFAB3
:10047C00002202210F4801F077FA002204210D48D6
:10048C0001F072FA002220210A4801F06DFA0022D4
:10049C004021084801F068FA00220821054801F0C3
:1004AC0063FA02E0FFF74CFE00BF00BF0837BD4601
:1004BC0080BD00BF000C014080B582B000AF7860F9
:1004CC007B68052B00F20C8101A252F823F000BFCF
:1004DC00F5040008490500089D050008F105000811
:1004EC00450600089906000800224FF400617F4879
:1004FC0001F03AFA00224FF480617C4801F034FAA2
:10050C0000224FF40071794801F02EFA00224FF4CA
:10051C008071764801F028FA00228021734801F09E
:10052C0023FA01224021714801F01EFA704A7B68BF
:10053C0052F823301846FFF72DFED2E0002240215E
:10054C006A4801F011FA00224FF40061674801F08B
:10055C000BFA00224FF48061644801F005FA002286
:10056C004FF40071614801F0FFF900224FF48071E3
:10057C005E4801F0F9F9012280215C4801F0F4F9A0
:10058C005B4A7B6852F823301846FFF703FEA8E05D
:10059C0000228021554801F0E7F900224021534800
:1005AC0001F0E2F900224FF40061504801F0DCF94F
:1005BC0000224FF480614D4801F0D6F900224FF42F
:1005CC0000714A4801F0D0F901224FF4807147487C
:1005DC0001F0CAF9464A7B6852F823301846FFF7F7
:1005EC00D9FD7EE000224FF48071404801F0BCF947
:1005FC00002280213D4801F0B7F9002240213B4800
:10060C0001F0B2F900224FF40061384801F0ACF966
:10061C0000224FF48061354801F0A6F901224FF415
:10062C000071324801F0A0F9314A7B6852F823304E
:10063C001846FFF7AFFD54E000224FF400712B4831
:10064C0001F092F900224FF48071284801F08CF9E6
:10065C0000228021254801F087F9002240212348FF
:10066C0001F082F900224FF40061204801F07CF97E
:10067C0001224FF480611D4801F076F91C4A7B6819
:10068C0052F823301846FFF785FD2AE000224FF47C
:10069C008061164801F068F900224FF4007113488C
:1006AC0001F062F900224FF48071104801F05CF9FE
:1006BC00002280210D4801F057F9002240210B48FF
:1006CC0001F052F901224FF40061084801F04CF995
:1006DC00074A7B6852F823301846FFF75BFD00E0B1
:1006EC0000BF00BF0837BD4680BD00BF00080140F9
:1006FC000000002080B400AF394B1B680133384A2E
:10070C001360374B1B683B2B07DD354B00221A60FF
:10071C00344B1B680133334A1360324B1B683B2B41
:10072C0007DD304B00221A602F4B1B6801332E4A19
:10073C0013602D4B1B68172B02DD2B4B00221A600C
:10074C00274B1B68294A82FB03129210DB17D31A22
:10075C00274A1361224B1968244B83FB01239A10FF
:10076C00CB17D21A13469B0013445B00CA1A204BBA
:10077C005A611C4B1B681D4A82FB03129210DB173B
:10078C00D31A1B4A9360174B1968184B83FB012330
:10079C009A10CB17D21A13469B0013445B00CA1A4B
:1007AC00134BDA60104B1B68104A82FB0312921039
:1007BC00DB17D31A0E4A13600B4B19680B4B83FBD8
:1007CC0001239A10CB17D21A13469B0013445B00DB
:1007DC00CA1A074B5A6000BFBD4680BC704700BFA9
:1007EC005800002054000020500000206766666608
:1007FC000000002080B500AF0820FFF7CBFC4FF4C1
:10080C00FA6000F005FEFFF79BFC01224FF6FF712A
:10081C00044801F0A9F84FF47A7000F0F9FD00BF1C
:10082C0080BD00BF0008014080B500AF00F08EFD18
:10083C0000F070F800F0F6F800F0A8F8314801F07C
:10084C00F1FCFFF7D7FF0A2000F0E6FB0A2000F0CE
:10085C00FDFB0A2000F014FC0A2000F02BFC00F039
:10086C0099FC0346002B0DD000F0A4FB2021264858
:10087C0001F092F81021244801F08EF84FF47A70B0
:10088C0000F0CAFB00F090FC0346002B22D01F4B5B
:10089C001B680622934202DB1C4B00221A601B4B86
:1008AC001B685A1C19490A601846FFF705FE184BBD
:1008BC001B680822934202DB154B00221A60144B72
:1008CC001B685A1C12490A60184600F0A5F90A2048
:1008DC0000F0BCFB00F072FC0346002B05D0FFF7C8
:1008EC0009FF4FF47A7000F0CBFB00F071FC03466B
:1008FC00002BB4D000F05EFB4FF47A7000F0DAFB02
:10090C00ADE700BF80000020000801404C00002033
:10091C005C00002080B590B000AF07F118032822CE
:10092C000021184602F02EF83B1D00221A605A6076
:10093C009A60DA601A610223BB610123BB62102347
:10094C00FB6200237B6307F11803184601F03EF8A5
:10095C000346002B01D000F059FB0F237B600023D2
:10096C00BB600023FB6000233B6100237B613B1DCC
:10097C000021184601F0AAFA0346002B01D000F022
:10098C0045FB00BF4037BD4680BD000080B586B03A
:10099C0000AF07F1080300221A605A609A60DA600F
:1009AC003B4600221A605A601D4B4FF080421A6081
:1009BC001B4B41F63F725A60194B00229A60184B40
:1009CC000922DA60164B00221A61154B00229A613B
:1009DC00134801F0D7FB0346002B01D000F016FBA7
:1009EC004FF48053BB6007F1080319460C4801F023
:1009FC0055FD0346002B01D000F008FB00233B60A3
:100A0C0000237B603B461946054801F02DFF034649
:100A1C00002B01D000F0FAFA00BF1837BD4680BD9C
:100A2C008000002080B586B000AF07F108030022DB
:100A3C001A605A609A60DA60224B9B69214A43F033
:100A4C00040393611F4B9B6903F004037B607B6879
:100A5C001C4B9B691B4A43F008039361194B9B6920
:100A6C0003F008033B603B6800224FF6FE7116480A
:100A7C0000F07AFF00224FF6FF71144800F074FF6B
:100A8C004FF6FE73BB600123FB6000233B61022326
:100A9C007B6107F1080319460B4800F0EBFD4FF69C
:100AAC00FF73BB600123FB6000233B6102237B616E
:100ABC0007F108031946054800F0DCFD00BF1837A4
:100ACC00BD4680BD0010024000080140000C0140F2
:100ADC0080B582B000AF786000F006FB00BF08372D
:100AEC00BD4680BD80B582B000AF0346FB71FB797B
:100AFC0003F00103002B06D000224FF4807145480F
:100B0C0000F032FF05E001224FF48071414800F003
:100B1C002BFFFB7903F00203002B06D000224FF4CD
:100B2C0000713C4800F020FF05E001224FF40071F9
:100B3C00384800F019FFFB7903F00403002B06D0B2
:100B4C0000224FF48061334800F00EFF05E00122D3
:100B5C004FF480612F4800F007FFFB7903F0080386
:100B6C00002B06D000224FF400612A4800F0FCFE56
:100B7C0005E001224FF40061264800F0F5FEFB79F8
:100B8C0003F01003002B06D000224FF480512148B3
:100B9C0000F0EAFE05E001224FF480511D4800F000
:100BAC00E3FEFB7903F02003002B06D000224FF468
:100BBC000051184800F0D8FE05E001224FF4005116
:100BCC00144800F0D1FEFB7903F04003002B06D053
:100BDC0000224FF480410F4800F0C6FE05E00122D0
:100BEC004FF480410B4800F0BFFE97F90730002B03
:100BFC0006DA00224FF40041064800F0B5FE05E08D
:100C0C0001224FF40041034800F0AEFE00BF08374C
:100C1C00BD4680BD000C014080B582B000AF78604D
:100C2C007B68072B00F2BA8101A252F823F000BFB7
:100C3C005D0C0008C50C00082D0D0008950D000872
:100C4C00FD0D0008650E0008CD0E0008410F0008D0
:100C5C0001224FF40041B44800F086FE01224FF40B
:100C6C008041B14800F080FE01224FF40051AE48A3
:100C7C0000F07AFE01224FF48051AB4800F074FE74
:100C8C0001228021A94800F06FFE01220821A6480C
:100C9C0000F06AFE01220421A34800F065FE002248
:100CAC000221A14800F060FEA14A7B6813441B7826
:100CBC001846FFF717FF72E1012202219A4800F053
:100CCC0053FE01224FF40041974800F04DFE0122E3
:100CDC004FF48041944800F047FE01224FF400513C
:100CEC00914800F041FE01224FF480518E4800F0F3
:100CFC003BFE012280218D4800F036FE01220821A6
:100D0C00894800F031FE00220421874800F02CFEB7
:100D1C00874A7B6813441B781846FFF7E3FE3EE1D5
:100D2C0001220421804800F01FFE012202217E488E
:100D3C0000F01AFE01224FF400417B4800F014FE33
:100D4C0001224FF48041784800F00EFE01224FF44E
:100D5C000051754800F008FE01224FF48051724892
:100D6C0000F002FE01228021704800F0FDFD0022FF
:100D7C0008216D4800F0F8FD6D4A7B6813441B7820
:100D8C001846FFF7AFFE0AE101220821664800F081
:100D9C00EBFD01220421644800F0E6FD0122022152
:100DAC00614800F0E1FD01224FF400415E4800F083
:100DBC00DBFD01224FF480415B4800F0D5FD0122A0
:100DCC004FF40051584800F0CFFD01224FF48051F0
:100DDC00554800F0C9FD00228021544800F0C4FDA4
:100DEC00534A7B6813441B781846FFF77BFED6E00A
:100DFC00012280214D4800F0B7FD012208214A480C
:100E0C0000F0B2FD01220421474800F0ADFD0122A3
:100E1C000221454800F0A8FD01224FF40041424850
:100E2C0000F0A2FD01224FF480413F4800F09CFDF0
:100E3C0001224FF400513C4800F096FD00224FF483
:100E4C008051394800F090FD394A7B6813441B7877
:100E5C001846FFF747FEA2E001224FF480513248BA
:100E6C0000F082FD01228021304800F07DFD01223E
:100E7C0008212D4800F078FD012204212A4800F0B9
:100E8C0073FD01220221284800F06EFD01224FF46F
:100E9C000041254800F068FD01224FF480412248B2
:100EAC0000F062FD00224FF400511F4800F05CFD81
:100EBC001F4A7B6813441B781846FFF713FE6EE03D
:100ECC0001224FF40051184800F04EFD01224FF45E
:100EDC008051154800F048FD01228021134800F094
:100EEC0043FD01220821104800F03EFD012204219F
:100EFC000D4800F039FD012202210B4800F034FDB1
:100F0C0001224FF40041084800F02EFD00224FF45E
:100F1C008041054800F028FD054A7B6813441B7886
:100F2C001846FFF7DFFD3AE000080140000C0140D5
:100F3C001800002001224FF480411B4800F014FDE2
:100F4C0001224FF40051184800F00EFD01224FF41D
:100F5C008051154800F008FD01228021134800F053
:100F6C0003FD01220821104800F0FEFC012204219F
:100F7C000D4800F0F9FC012202210B4800F0F4FCB2
:100F8C0000224FF40041084800F0EEFC084A7B6850
:100F9C0013441B781846FFF7A5FD00E000BF00BF07
:100FAC000837BD4680BD00BF00080140000C014061
:100FBC001800002080B483B000AF134B1B78FB717A
:100FCC00114B5A78104B1A700F4B9A780E4B5A7073
:100FDC000D4BDA780C4B9A700B4B1A790A4BDA7072
:100FEC00094B5A79084B1A71074B9A79064B5A716F
:100FFC00054BDA79044B9A71034AFB79D37100BF24
:10100C000C37BD4680BC70471800002080B400AF80
:10101C0072B600BFFEE7000080B483B000AF78600A
:10102C00074B1B687A6892FBF3F3064A1360064B76
:10103C0000221A6000BF0C37BD4680BC704700BF51
:10104C0020000020600000206400002080B483B0E9
:10105C0000AF7860074B1B687A6892FBF3F3064A83
:10106C001360064B00221A6000BF0C37BD4680BCD3
:10107C00704700BF20000020680000206C0000209A
:10108C0080B483B000AF7860074B1B687A6892FB22
:10109C00F3F3064A1360064B00221A6000BF0C37AC
:1010AC00BD4680BC704700BF2000002070000020AF
:1010BC007400002080B483B000AF7860074B1B68CD
:1010CC007A6892FBF3F3064A1360064B00221A600F
:1010DC0000BF0C37BD4680BC704700BF200000200D
:1010EC00780000207C00002080B400AF214B1B68EE
:1010FC00002B0BDD1F4B1B68013B1E4A13601D4B65
:10110C001B68002B02DC1C4B01221A601B4B1B685A
:10111C00002B0BDD194B1B68013B184A1360174B56
:10112C001B68002B02DC164B01221A60154B1B6846
:10113C00002B0BDD134B1B68013B124A1360114B48
:10114C001B68002B02DC104B01221A600F4B1B6832
:10115C00002B0BDD0D4B1B68013B0C4A13600B4B3A
:10116C001B68002B02DC0A4B01221A6000BFBD4633
:10117C0080BC7047600000206400002068000020E4
:10118C006C0000207000002074000020780000200B
:10119C007C00002080B400AF024B1B681846BD4693
:1011AC0080BC70476400002080B400AF024B1B6809
:1011BC001846BD4680BC70476C00002080B400AF60
:1011CC00024B1B681846BD4680BC7047740000205B
:1011DC0080B400AF024B1B681846BD4680BC7047FC
:1011EC007C00002080B485B000AF154B9B69144A7D
:1011FC0043F001039361124B9B6903F00103BB6045
:10120C00BB680F4BDB690E4A43F08053D3610C4B28
:10121C00DB6903F080537B607B680A4B5B68FB6087
:10122C00FB6823F0E063FB60FB6843F08063FB60CA
:10123C00044AFB68536000BF1437BD4680BC70473E
:10124C00001002400000014080B584B000AF78600F
:10125C007B681B68B3F1804F13D10C4BDB690B4AD5
:10126C0043F00103D361094BDB6903F00103FB601D
:10127C00FB68002200211C2000F0C5F91C2000F0A6
:10128C00DEF900BF1037BD4680BD00BF0010024024
:10129C0080B400AFFEE780B400AFFEE780B400AFCF
:1012AC00FEE780B400AFFEE780B400AFFEE780B489
:1012BC0000AF00BFBD4680BC704780B400AF00BF1C
:1012CC00BD4680BC704780B400AF00BFBD4680BC3B
:1012DC00704780B500AF00F07FF800BF80BD000004
:1012EC0080B500AF024800F0E9FF00BF80BD00BF31
:1012FC008000002080B400AF00BFBD4680BC7047AA
:10130C00FFF7F8FF0B480C490C4A002302E0D458B5
:10131C00C4500433C4188C42F9D3094A094C002335
:10132C0001E013600432A242FBD301F007FBFFF78C
:10133C007BFA70470000002030000020E4290008F0
:10134C0030000020CC000020FEE7000080B500AF8C
:10135C00084B1B68074A43F010031360032000F08E
:10136C0047F90F2000F008F8FFF73CFF0023184660
:10137C0080BD00BF0020024080B582B000AF786015
:10138C00124B1A68124B1B7819464FF47A73B3FB45
:10139C00F1F3B2FBF3F3184600F05FF90346002BB0
:1013AC0001D001230EE07B680F2B0AD8002279684C
:1013BC004FF0FF3000F027F9064A7B6813600023DA
:1013CC0000E0012318460837BD4680BD24000020EC
:1013DC002C0000202800002080B400AF054B1B78A7
:1013EC001A46054B1B681344034A136000BFBD46E5
:1013FC0080BC70472C000020C800002080B400AFD7
:10140C00024B1B681846BD4680BC7047C8000020C4
:10141C0080B584B000AF7860FFF7F0FFB8607B68F0
:10142C00FB60FB68B3F1FF3F05D00A4B1B781A46F3
:10143C00FB681344FB6000BFFFF7E0FF0246BB688C
:10144C00D31AFA689A42F7D800BF00BF1037BD46CE
:10145C0080BD00BF2C00002080B485B000AF786048
:10146C007B6803F00703FB600C4BDB68BB60BA685E
:10147C004FF6FF031340BB60FB681A02BB681343B3
:10148C0043F0BF6343F40033BB60044ABB68D360D2
:10149C0000BF1437BD4680BC704700BF00ED00E0B4
:1014AC0080B400AF044BDB681B0A03F0070318463B
:1014BC00BD4680BC704700BF00ED00E080B483B037
:1014CC0000AF0346FB7197F90730002B0BDBFB7960
:1014DC0003F01F02064997F907305B09012000FA57
:1014EC0002F241F8232000BF0C37BD4680BC704788
:1014FC0000E100E080B483B000AF03463960FB71BB
:10150C0097F90730002B0ADB3B68DAB20C4997F9E4
:10151C0007301201D2B20B4483F800230AE03B6877
:10152C00DAB20849FB7903F00F03043B1201D2B283
:10153C000B441A7600BF0C37BD4680BC704700BF09
:10154C0000E100E000ED00E080B489B000AFF8608D
:10155C00B9607A60FB6803F00703FB61FB69C3F1B8
:10156C000703042B28BF0423BB61FB690433062B40
:10157C0002D9FB69033B00E000237B614FF0FF3293
:10158C00BB6902FA03F3DA43BB681A407B699A40E1
:10159C004FF0FF317B6901FA03F3D9437B680B40B1
:1015AC00134318462437BD4680BC704780B582B0C3
:1015BC0000AF78607B68013BB3F1807F01D30123DE
:1015CC000FE00A4A7B68013B53600F214FF0FF305C
:1015DC00FFF790FF054B00229A60044B07221A601C
:1015EC00002318460837BD4680BD00BF10E000E060
:1015FC0080B582B000AF78607868FFF72DFF00BF30
:10160C000837BD4680BD80B586B000AF0346B960D3
:10161C007A60FB7300237B61FFF742FF78617A6885
:10162C00B9687869FFF790FF024697F90F301146B9
:10163C001846FFF75FFF00BF1837BD4680BD80B569
:10164C0082B000AF0346FB7197F907301846FFF7DD
:10165C0035FF00BF0837BD4680BD80B582B000AFF6
:10166C0078607868FFF7A2FF034618460837BD4636
:10167C0080BD000080B48BB000AF7860396000236F
:10168C007B6200233B6248E101227B6A02FA03F38E
:10169C00FB613B681B68FA691340BB61BA69FB6963
:1016AC009A4240F037813B685B68A34A93425ED014
:1016BC00A14A934275D8A14A934258D09F4A93426B
:1016CC006FD89F4A934252D09D4A934269D89D4A03
:1016DC0093424CD09B4A934263D89B4A934246D048
:1016EC00994A93425DD8122B2AD8122B59D801A2B1
:1016FC0052F823F07B1700085517000867170008ED
:10170C00A9170008AF170008AF170008AF1700089B
:10171C00AF170008AF170008AF170008AF17000885
:10172C00AF170008AF170008AF170008AF17000875
:10173C00AF170008AF1700085D17000871170008F5
:10174C00824A934213D02CE03B68DB683B6229E071
:10175C003B68DB6804333B6224E03B68DB6808339E
:10176C003B621FE03B68DB680C333B621AE03B6872
:10177C009B68002B02D104233B6213E03B689B68FF
:10178C00012B05D108233B627B68FA691A6109E0D9
:10179C0008233B627B68FA695A6103E000233B62D1
:1017AC0000E000BFBB69FF2B01D87B6801E07B68C0
:1017BC0004337B61BB69FF2B02D87B6A9B0002E080
:1017CC007B6A083B9B003B617B691A680F213B6974
:1017DC0001FA03F3DB431A40396A3B6901FA03F35C
:1017EC001A437B691A603B685B6803F08053002BDB
:1017FC0000F09080564B9B69554A43F0010393616E
:10180C00534B9B6903F00103BB60BB68514A7B6A75
:10181C009B08023352F82330FB607B6A03F003030E
:10182C009B000F2202FA03F3DB43FA681340FB60C0
:10183C007B68494A93420DD07B68484A934207D053
:10184C007B68474A934201D1022304E0032302E060
:10185C00012300E000237A6A02F003029200934015
:10186C00FA681343FB603B497B6A9B080233FA68B6
:10187C0041F823203B685B6803F48013002B06D0EF
:10188C00384B9A683749BB6913438B6006E0354B7C
:10189C009A68BB69DB43334913408B603B685B68D8
:1018AC0003F40013002B06D02E4BDA682D49BB69CC
:1018BC001343CB6006E02B4BDA68BB69DB43294949
:1018CC001340CB603B685B6803F40033002B06D0FD
:1018DC00244B5A682349BB6913434B6006E0214BE8
:1018EC005A68BB69DB431F4913404B603B685B681C
:1018FC0003F48033002B06D01A4B1A681949BB69C4
:10190C0013430B6006E0174B1A68BB69DB431549A0
:10191C0013400B607B6A01337B623B681A687B6AFD
:10192C0022FA03F3002B7FF4AFAE00BF00BF2C37BD
:10193C00BD4680BC704700BF000032100000311063
:10194C0000002210000021100000121000001110E5
:10195C00001002400000014000080140000C014052
:10196C00001001400004014080B483B000AF7860E7
:10197C000B467B8013467B707B78002B03D07A88D8
:10198C007B681A6103E07B881A047B681A6100BFCC
:10199C000C37BD4680BC704780B485B000AF786012
:1019AC000B467B807B68DB68FB607A88FB681340A6
:1019BC001A04FB68D9437B880B401A437B681A6175
:1019CC0000BF1437BD4680BC7047000080B586B0A0
:1019DC0000AF78607B68002B01D101236CE27B683F
:1019EC001B6803F00103002B00F08780924B5B68AF
:1019FC0003F00C03042B0CD08F4B5B6803F00C032F
:101A0C00082B12D18C4B5B6803F48033B3F5803F09
:101A1C000BD1894B1B6803F40033002B6CD07B6813
:101A2C005B68002B68D1012346E27B685B68B3F5E9
:101A3C00803F06D1804B1B687F4A43F48033136090
:101A4C002EE07B685B68002B0CD17B4B1B687A4AC1
:101A5C0023F480331360784B1B68774A23F480237C
:101A6C0013601DE07B685B68B3F5A02F0CD1724B43
:101A7C001B68714A43F4802313606F4B1B686E4ADA
:101A8C0043F4803313600BE06B4B1B686A4A23F4FE
:101A9C0080331360684B1B68674A23F48023136000
:101AAC007B685B68002B13D0FFF7A8FC386108E05B
:101ABC00FFF7A4FC02463B69D31A642B01D903231C
:101ACC00FAE15D4B1B6803F40033002BF0D014E0FB
:101ADC00FFF794FC386108E0FFF790FC02463B6985
:101AEC00D31A642B01D90323E6E1534B1B6803F48F
:101AFC000033002BF0D100E000BF7B681B6803F0C3
:101B0C000203002B63D04C4B5B6803F00C03002BDF
:101B1C000BD0494B5B6803F00C03082B1CD1464BD4
:101B2C005B6803F48033002B16D1434B1B6803F026
:101B3C000203002B05D07B681B69012B01D001230C
:101B4C00BAE13D4B1B6823F0F8027B685B69DB0054
:101B5C00394913430B603AE07B681B69002B20D09A
:101B6C00364B01221A60FFF749FC386108E0FFF799
:101B7C0045FC02463B69D31A022B01D903239BE196
:101B8C002D4B1B6803F00203002BF0D02A4B1B6873
:101B9C0023F0F8027B685B69DB00274913430B6079
:101BAC0015E0264B00221A60FFF728FC386108E08C
:101BBC00FFF724FC02463B69D31A022B01D90323FD
:101BCC007AE11D4B1B6803F00203002BF0D17B68FC
:101BDC001B6803F00803002B3AD07B689B69002B31
:101BEC0019D0174B01221A60FFF708FC386108E086
:101BFC00FFF704FC02463B69D31A022B01D90323DD
:101C0C005AE10D4B5B6A03F00203002BF0D001206C
:101C1C0000F09AFA1CE00A4B00221A60FFF7EEFB68
:101C2C0038610FE0FFF7EAFB02463B69D31A022B3F
:101C3C0008D9032340E100BF0010024000004242DB
:101C4C00800442429E4B5B6A03F00203002BE9D1F5
:101C5C007B681B6803F00403002B00F0A6800023B4
:101C6C00FB75974BDB6903F08053002B0DD1944B24
:101C7C00DB69934A43F08053D361914BDB6903F0EA
:101C8C008053BB60BB680123FB758E4B1B6803F450
:101C9C008073002B18D18B4B1B688A4A43F48073DA
:101CAC001360FFF7ABFB386108E0FFF7A7FB0246B8
:101CBC003B69D31A642B01D90323FDE0814B1B68CC
:101CCC0003F48073002BF0D07B68DB68012B06D10A
:101CDC007B4B1B6A7A4A43F0010313622DE07B684D
:101CEC00DB68002B0CD1764B1B6A754A23F0010381
:101CFC001362734B1B6A724A23F0040313621CE0D9
:101D0C007B68DB68052B0CD16D4B1B6A6C4A43F06E
:101D1C00040313626A4B1B6A694A43F001031362A2
:101D2C000BE0674B1B6A664A23F001031362644B9A
:101D3C001B6A634A23F0040313627B68DB68002B85
:101D4C0015D0FFF75BFB38610AE0FFF757FB024643
:101D5C003B69D31A41F28832934201D90323ABE099
:101D6C00574B1B6A03F00203002BEED014E0FFF775
:101D7C0045FB38610AE0FFF741FB02463B69D31A89
:101D8C0041F28832934201D9032395E04C4B1B6AF4
:101D9C0003F00203002BEED1FB7D012B05D1484B48
:101DAC00DB69474A23F08053D3617B68DB69002BE6
:101DBC0000F08180424B5B6803F00C03082B61D070
:101DCC007B68DB69022B46D13F4B00221A60FFF780
:101DDC0015FB386108E0FFF711FB02463B69D31A8B
:101DEC00022B01D9032367E0354B1B6803F000730A
:101DFC00002BF0D17B681B6AB3F5803F08D1304BC8
:101E0C005B6823F400327B689B682D4913434B605D
:101E1C002B4B5B6823F474127B68196A7B685B6AD2
:101E2C000B43274913434B60274B01221A60FFF7E2
:101E3C00E5FA386108E0FFF7E1FA02463B69D31A8C
:101E4C00022B01D9032337E01D4B1B6803F00073F1
:101E5C00002BF0D02FE01C4B00221A60FFF7CEFABB
:101E6C00386108E0FFF7CAFA02463B69D31A022B25
:101E7C0001D9032320E0124B1B6803F00073002BE5
:101E8C00F0D118E07B68DB69012B01D1012313E051
:101E9C000B4B5B68FB60FB6803F480327B681B6A4E
:101EAC009A4206D1FB6803F470127B685B6A9A4213
:101EBC0001D0012300E0002318461837BD4680BD31
:101ECC0000100240007000406000424280B584B0B7
:101EDC0000AF786039607B68002B01D10123D0E022
:101EEC006A4B1B6803F007033A689A4210D9674B98
:101EFC001B6823F0070265493B6813430B60634B77
:101F0C001B6803F007033A689A4201D00123B8E03A
:101F1C007B681B6803F00203002B20D07B681B68D6
:101F2C0003F00403002B05D0594B5B68584A43F46B
:101F3C00E06353607B681B6803F00803002B05D03B
:101F4C00534B5B68524A43F460535360504B5B688D
:101F5C0023F0F0027B689B684D4913434B607B6810
:101F6C001B6803F00103002B40D07B685B68012BDE
:101F7C0007D1474B1B6803F40033002B15D1012309
:101F8C007FE07B685B68022B07D1414B1B6803F039
:101F9C000073002B09D1012373E03D4B1B6803F048
:101FAC000203002B01D101236BE0394B5B6823F05A
:101FBC0003027B685B68364913434B60FFF71EFADC
:101FCC00F8600AE0FFF71AFA0246FB68D31A41F2EE
:101FDC008832934201D9032353E02D4B5B6803F005
:101FEC000C027B685B689B009A42EBD1274B1B6809
:101FFC0003F007033A689A4210D2244B1B6823F073
:10200C00070222493B6813430B60204B1B6803F00B
:10201C0007033A689A4201D0012332E07B681B68BF
:10202C0003F00403002B08D0194B5B6823F4E06227
:10203C007B68DB68164913434B607B681B6803F0B5
:10204C000803002B09D0124B5B6823F460527B68A9
:10205C001B69DB000E4913434B6000F021F802466C
:10206C000B4B5B681B0903F00F030A49CB5C22FA8C
:10207C0003F3094A1360094B1B681846FFF77CF9F8
:10208C00002318461037BD4680BD00BF002002401B
:10209C0000100240B829000824000020280000206D
:1020AC0080B487B000AF0023FB600023BB6000232B
:1020BC007B6100237B6000233B611E4B5B68FB60F4
:1020CC00FB6803F00C03042B02D0082B03D027E091
:1020DC00194B3B6127E0FB689B0C03F00F03174A7D
:1020EC00D35C7B60FB6803F48033002B10D0114B66
:1020FC005B685B0C03F00103114AD35CBB607B682B
:10210C000D4A02FB03F2BB68B2FBF3F37B6104E004
:10211C007B680C4A02FB03F37B617B693B6102E049
:10212C00054B3B6100BF3B6918461C37BD4680BC64
:10213C00704700BF0010024000127A00C829000846
:10214C00D829000800093D0080B485B000AF786044
:10215C000A4B1B680A4AA2FB03235B0A7A6802FB40
:10216C0003F3FB6000BFFB685A1EFA60002BF9D129
:10217C0000BF00BF1437BD4680BC70472400002050
:10218C00D34D621080B582B000AF78607B68002BB5
:10219C0001D1012341E07B6893F83D30DBB2002B89
:1021AC0006D17B68002283F83C207868FFF74CF856
:1021BC007B68022283F83D207B681A687B680433B5
:1021CC001946104600F056FA7B68012283F8462027
:1021DC007B68012283F83E207B68012283F83F2034
:1021EC007B68012283F840207B68012283F8412020
:1021FC007B68012283F842207B68012283F843200C
:10220C007B68012283F844207B68012283F84520F7
:10221C007B68012283F83D20002318460837BD4611
:10222C0080BD000080B485B000AF78607B6893F807
:10223C003D30DBB2012B01D0012335E07B6802225B
:10224C0083F83D207B681B68DA687B681B6842F06A
:10225C000102DA607B681B68164A934209D07B68DE
:10226C001B68B3F1804F04D07B681B68124A934201
:10227C0011D17B681B689B6803F00703FB60FB684C
:10228C00062B10D07B681B681A687B681B6842F0B1
:10229C0001021A6007E07B681B681A687B681B6880
:1022AC0042F001021A60002318461437BD4680BC68
:1022BC00704700BF002C01400004004080B584B082
:1022CC0000AF78607B681B68DB68FB607B681B6811
:1022DC001B69BB60BB6803F00203002B20D0FB68BA
:1022EC0003F00203002B1BD07B681B686FF002020B
:1022FC001A617B6801221A777B681B689B6903F063
:10230C000303002B03D0786800F098F905E0786897
:10231C0000F08BF9786800F09AF97B6800221A7744
:10232C00BB6803F00403002B20D0FB6803F004030C
:10233C00002B1BD07B681B686FF004021A617B6852
:10234C0002221A777B681B689B6903F44073002B8D
:10235C0003D0786800F072F905E0786800F065F950
:10236C00786800F074F97B6800221A77BB6803F078
:10237C000803002B20D0FB6803F00803002B1BD0B4
:10238C007B681B686FF008021A617B6804221A775D
:10239C007B681B68DB6903F00303002B03D07868B0
:1023AC0000F04CF905E0786800F03FF9786800F02F
:1023BC004EF97B6800221A77BB6803F01003002BE0
:1023CC0020D0FB6803F01003002B1BD07B681B682C
:1023DC006FF010021A617B6808221A777B681B6801
:1023EC00DB6903F44073002B03D0786800F026F906
:1023FC0005E0786800F019F9786800F028F97B6836
:10240C0000221A77BB6803F00103002B0CD0FB6889
:10241C0003F00103002B07D07B681B686FF00102EF
:10242C001A617868FEF754FBBB6803F08003002B3D
:10243C000CD0FB6803F08003002B07D07B681B6873
:10244C006FF080021A61786800F06FFABB6803F0D5
:10245C004003002B0CD0FB6803F04003002B07D08B
:10246C007B681B686FF040021A61786800F0F8F81E
:10247C00BB6803F02003002B0CD0FB6803F0200397
:10248C00002B07D07B681B686FF020021A617868FC
:10249C0000F042FA00BF1037BD4680BD80B584B055
:1024AC0000AF786039600023FB737B6893F83C3095
:1024BC00012B01D10223B4E07B68012283F83C207C
:1024CC007B68022283F83D207B681B689B68BB609D
:1024DC00BB6823F07703BB60BB6823F47F43BB600E
:1024EC007B681B68BA689A603B681B68B3F5005F31
:1024FC003ED0B3F5005F00F28780B3F5805F00F04B
:10250C008680B3F5805F7FD8702B1AD0702B7BD868
:10251C00602B50D0602B77D8502B3CD0502B73D8DD
:10252C00402B58D0402B6FD8302B64D0302B6BD82D
:10253C00202B60D0202B67D8002B5CD0102B5AD0CE
:10254C0062E07B6818683B6899683B685A683B682E
:10255C00DB6800F06AF97B681B689B68BB60BB6832
:10256C0043F07703BB607B681B68BA689A604FE0E6
:10257C007B6818683B6899683B685A683B68DB68FD
:10258C0000F053F97B681B689A687B681B6842F4FF
:10259C0080429A603CE07B6818683B6859683B68ED
:1025AC00DB681A4600F0CAF87B681B685021184695
:1025BC0000F021F92CE07B6818683B6859683B688F
:1025CC00DB681A4600F0E8F87B681B686021184647
:1025DC0000F011F91CE07B6818683B6859683B688F
:1025EC00DB681A4600F0AAF87B681B684021184685
:1025FC0000F001F90CE07B681A683B681B6819460F
:10260C00104600F0F8F803E00123FB7300E000BF74
:10261C007B68012283F83D207B68002283F83C20F4
:10262C00FB7B18461037BD4680BD80B483B000AF2D
:10263C00786000BF0C37BD4680BC704780B483B057
:10264C0000AF786000BF0C37BD4680BC704780B4CB
:10265C0083B000AF786000BF0C37BD4680BC7047BC
:10266C0080B483B000AF786000BF0C37BD4680BC2F
:10267C007047000080B485B000AF786039607B682B
:10268C001B68FB607B682B4A934207D07B68B3F1D5
:10269C00804F03D07B68284A934208D1FB6823F013
:1026AC007003FB603B685B68FA681343FB607B68F4
:1026BC00204A934207D07B68B3F1804F03D07B68EC
:1026CC001D4A934208D1FB6823F44073FB603B68BE
:1026DC00DB68FA681343FB60FB6823F080023B68FD
:1026EC005B691343FB607B68FA681A603B689A6805
:1026FC007B68DA623B681A687B689A627B680D4A71
:10270C00934203D13B681A697B681A637B68012288
:10271C005A617B681B6903F00103002B05D07B68B1
:10272C001B6923F001027B681A6100BF1437BD4698
:10273C0080BC7047002C01400004004080B487B07E
:10274C0000AFF860B9607A60FB681B6A7B61FB685C
:10275C001B6A23F00102FB681A62FB689B693B61F0
:10276C003B6923F0F0033B617B681B013A6913431F
:10277C003B617B6923F00A037B617A69BB68134375
:10278C007B61FB683A699A61FB687A691A6200BFDF
:10279C001C37BD4680BC704780B487B000AFF86072
:1027AC00B9607A60FB681B6A7B61FB681B6A23F06B
:1027BC001002FB681A62FB689B693B613B6923F45E
:1027CC0070433B617B681B033A6913433B617B6934
:1027DC0023F0A0037B61BB681B017A6913437B6107
:1027EC00FB683A699A61FB687A691A6200BF1C3708
:1027FC00BD4680BC704780B485B000AF786039604E
:10280C007B689B68FB60FB6823F07003FB603A6895
:10281C00FB68134343F00703FB607B68FA689A601C
:10282C0000BF1437BD4680BC704780B487B000AF82
:10283C00F860B9607A603B60FB689B687B617B6980
:10284C0023F47F437B613B681A027B681A43BB68A5
:10285C0013437A6913437B61FB687A699A6000BF02
:10286C001C37BD4680BC704780B485B000AF786023
:10287C0039607B6893F83C30012B01D1022341E095
:10288C007B68012283F83C207B68022283F83D2080
:10289C007B681B685B68FB607B681B689B68BB6024
:1028AC00FB6823F07003FB603B681B68FA681343FA
:1028BC00FB607B681B68FA685A607B681B68144A6B
:1028CC00934209D07B681B68B3F1804F04D07B68BE
:1028DC001B68104A93420CD1BB6823F08003BB6089
:1028EC003B685B68BA681343BB607B681B68BA685B
:1028FC009A607B68012283F83D207B68002283F874
:10290C003C20002318461437BD4680BC704700BFDE
:10291C00002C01400004004080B483B000AF78600C
:10292C0000BF0C37BD4680BC704780B483B000AF8D
:10293C00786000BF0C37BD4680BC704770B5002670
:10294C000C4D0D4C641BA410A64209D100F022F8CA
:10295C0000260A4D0A4C641BA410A64205D170BD7A
:10296C0055F8043B98470136EEE755F8043B984779
:10297C000136F2E7DC290008DC290008DC29000814
:10298C00E029000803460244934200D1704703F843
:10299C00011BF9E7F8B500BFF8BC08BC9E467047B0
:0C29AC00F8B500BFF8BC08BC9E467047A0
:1029B80000000000000000000102030406070809E7
:1029C80002030405060708090A0B0C0D0E0F101068
:0429D80001020000F8
:0429DC0031010008BD
:0429E0000D010008DD
:1029E40001000000020000000300000004000000D9
:1029F400050000000600000000FC12111112FC008A
:102A04000A00000000127A0010000000010000001B
:040000050800130DCF
:00000001FF
