:020000040800F2
:100000000028002005170008E9140008EF14000874
:10001000F5140008FB14000801150008000000009A
:1000200000000000000000000000000007150008AC
:1000300013150008000000001F1500082B1500080C
:100040004D1700084D1700084D1700084D17000800
:100050004D1700084D1700084D1700084D170008F0
:100060004D1700084D1700084D1700084D170008E0
:100070004D1700084D1700084D1700084D170008D0
:100080004D1700084D1700084D1700084D170008C0
:100090004D1700084D1700084D1700084D170008B0
:1000A0004D1700084D1700084D1700084D170008A0
:1000B000391500084D170008000000004D17000812
:1000C0004D17000800000000000000004D17000858
:1000D000000000004D1700084D1700080000000048
:1000E0004D1700084D1700084D17000800000000CC
:1000F0000000000000000000000000000000000000
:0C01000000000000000000005FF808F1A3
:10010C0010B5054C237833B9044B13B10448AFF345
:10011C0000800123237010BD1C0000200000000093
:10012C00C42D000808B5034B1BB103490348AFF3BA
:10013C00008008BD0000000020000020C42D000835
:10014C0080B400AF0C4B0F221A600C4B04221A60C7
:10015C000B4B0C221A60084B1B680A4A1360074BA6
:10016C001B68094A1360064B1B68084A136000BFE2
:10017C00BD4680BC704700BF88000020980000205E
:10018C00900000209C0000208C0000209400002097
:10019C0080B500AF164B1B78002B02D0012B18D06A
:1001AC0024E0002000F046FA0346002B1BD0104B35
:1001BC0001221A700F4B1B6801330E4A13600D4B52
:1001CC001B68042B0FDD0B4B01221A6000F0A6FC00
:1001DC0009E0002000F02EFA0346002B05D1044B59
:1001EC0000221A7001E000BF00E000BF00BF80BD1C
:1001FC00380000200000002080B400AF1E4B1B68AC
:10020C00042B20D0042B2BDC022B02D0032B0DD083
:10021C0026E01A4B1B680133184A1360174B1B68F6
:10022C00632B1FDD154B00221A601BE0144B1B685F
:10023C000133134A1360124B1B68632B14DD104BF4
:10024C0000221A6010E00F4B1B6801330D4A13603B
:10025C000C4B1B68632B09DD0A4B00221A6005E06E
:10026C0000BF04E000BF02E000BF00E000BF00BF21
:10027C00BD4680BC704700BF000000209C000020E1
:10028C008C0000209400002080B483B000AF0023C9
:10029C007B602B4B1B68042B34D0042B49DC022BCA
:1002AC0002D0032B17D044E0264B1A68264B1B6850
:1002BC00D31A7B60234B1B68234A1360234B1A68A9
:1002CC007B681344214A1360214B1A687B681344E2
:1002DC001F4A13602EE01F4B1A681F4B1B68D31A62
:1002EC007B601C4B1B681C4A1360174B1A687B689D
:1002FC001344154A1360134B1A687B681344114A54
:10030C00136017E0124B1A68104B1B68D31A7B60F2
:10031C000F4B1B680D4A13600C4B1A687B68134417
:10032C000A4A13600A4B1A687B681344084A136024
:10033C0000E000BF00BF0C37BD4680BC704700BF5B
:10034C00000000209C00002088000020900000206D
:10035C00940000208C0000209800002080B500AF95
:10036C00344B5B78022B27D0022B3ADC002B02D0CB
:10037C00012B0CD035E0012000F05CF90346002B7A
:10038C0031D02C4B01225A70FFF736FF2BE00120A5
:10039C0000F050F90346002B02D1264B00225A7074
:1003AC00012000F061F90346002B1ED0214B0222E4
:1003BC005A70FFF721FF18E0012000F03BF90346CB
:1003CC00002B02D11B4B00225A70012000F066F961
:1003DC000346002B0BD0012000F07AF9FFF70CFF3D
:1003EC0005E000BF04E000BF02E000BF00E000BF7A
:1003FC00104B9B78002B02D0012B0CD018E0022064
:10040C0000F018F90346002B0FD00A4B01229A700A
:10041C00FFF73AFF09E0022000F00CF90346002B2D
:10042C0005D1044B00229A7001E000BF00E000BF30
:10043C0000BF80BD3800002080B483B000AF002323
:10044C007B602AE0194A7B68134401221A70184A0F
:10045C007B68134401221A70164A7B6813440122EC
:10046C001A70154A7B68134401221A70134A7B6870
:10047C00134400221A70124A7B68134400221A702B
:10048C00104A7B68002122F813100F4A7B68002168
:10049C0022F813107B6801337B607B68022BD1DD63
:1004AC0000BF00BF0C37BD4680BC70473C0000202D
:1004BC004000002044000020480000204C00002098
:1004CC0050000020540000205C00002080B582B059
:1004DC0000AF00237B6092E04D4A7B68134419788F
:1004EC004C4A7B6813440A461A704B4A7B68134487
:1004FC001978474A7B6813440A461A7001227B68B4
:10050C0002FA03F39BB21946444801F029FC034656
:10051C001946414A7B6813440A461A703E4A7B6866
:10052C0013441A783A497B680B441B789A4212D1CF
:10053C00384A7B6813441A7835497B680B441B781E
:10054C009A4208D1344A7B6813441978344A7B6840
:10055C0013440A461A70324A7B6813441B78002BEA
:10056C0036D1304A7B6832F81330C72B0AD82D4A63
:10057C007B6832F81330013399B22A4A7B6822F82F
:10058C00131039E0284A7B68134401221A70274A59
:10059C007B6832F81330312B2ED8244A7B6832F822
:1005AC001330013399B2214A7B6822F813101F4A89
:1005BC007B6832F81330312B1ED91C4A7B68002122
:1005CC0022F813101A4A7B68134401221A7013E0A4
:1005DC00144A7B68002122F81310134A7B681344D9
:1005EC0000221A70114A7B68002122F81310104A5D
:1005FC007B68134400221A707B6801337B607B6834
:10060C00022B7FF769AF00BF00BF0837BD4680BD26
:10061C00440000204800002040000020000C014055
:10062C003C000020540000204C0000205C00002006
:10063C005000002080B483B000AF0346FB71FB79FF
:10064C00022B01D9002307E0FB79064AD35C002B6F
:10065C000CBF01230023DBB218460C37BD4680BC0F
:10066C00704700BF3C00002080B483B000AF03464D
:10067C00FB71FB79022B01D9002307E0FB79064AB9
:10068C00D35C012B0CBF01230023DBB218460C37C3
:10069C00BD4680BC704700BF4C00002080B483B0C6
:1006AC0000AF0346FB71FB79022B01D9002307E055
:1006BC00FB79064AD35C012B0CBF01230023DBB270
:1006CC0018460C37BD4680BC704700BF5000002058
:1006DC0080B483B000AF0346FB71FB79034A002161
:1006EC00D15400BF0C37BD4680BC70475000002071
:1006FC0080B500AF01228021144801F048FB012293
:10070C004FF48051114801F042FB01224FF400617B
:10071C000E4801F03CFB01224FF480610B4801F0C4
:10072C0036FB01224FF40051084801F030FB012246
:10073C004FF48071054801F02AFB01224FF400713F
:10074C00024801F024FB00BF80BD00BF000801403F
:10075C0080B582B000AF78607B68092B00F2BC8159
:10076C0001A252F823F000BF9D070008F107000812
:10077C004508000899080008ED0800084109000820
:10078C0095090008E90900083D0A0008910A0008CB
:10079C0001224FF40051D34801F0F9FA00228021D4
:1007AC00D04801F0F4FA00224FF48071CD4801F0EA
:1007BC00EEFA00224FF40071CA4801F0E8FA002268
:1007CC004FF48061C74801F0E2FA00224FF4006157
:1007DC00C44801F0DCFA00224FF48051C14801F00A
:1007EC00D6FA7AE101228021BE4801F0D0FA01222A
:1007FC004FF48051BB4801F0CAFA01224FF400615A
:10080C00B84801F0C4FA01224FF48061B54801F0F8
:10081C00BEFA01224FF40051B24801F0B8FA00229E
:10082C004FF48071AF4801F0B2FA00224FF400711E
:10083C00AC4801F0ACFA50E101224FF48051A948C8
:10084C0001F0A5FA01224FF40071A64801F09FFABD
:10085C0000228021A34801F09AFA00224FF4807103
:10086C00A04801F094FA00224FF400519D4801F089
:10087C008EFA00224FF400619A4801F088FA0022A7
:10088C004FF48061974801F082FA26E101224FF47F
:10089C008051944801F07BFA01224FF40061914899
:1008AC0001F075FA002280218E4801F070FA0022C6
:1008BC004FF480718B4801F06AFA00224FF400511A
:1008CC00884801F064FA00224FF40071854801F069
:1008DC005EFA00224FF48061824801F058FAFCE085
:1008EC00012280217F4801F052FA01224FF400616D
:1008FC007C4801F04CFA01224FF48061794801F0F8
:10090C0046FA00224FF48051764801F040FA00225A
:10091C004FF48071734801F03AFA00224FF4005101
:10092C00704801F034FA00224FF400716D4801F068
:10093C002EFAD2E001224FF480716A4801F027FAB6
:10094C0001224FF40061674801F021FA0022802156
:10095C00644801F01CFA00224FF48051614801F008
:10096C0016FA00224FF400515E4801F010FA0022F2
:10097C004FF400715B4801F00AFA00224FF48061D9
:10098C00584801F004FAA8E001224FF48071554850
:10099C0001F0FDF900228021524801F0F8F9002203
:1009AC004FF480514F4801F0F2F900224FF40051FE
:1009BC004C4801F0ECF900224FF40061494801F079
:1009CC00E6F900224FF40071464801F0E0F90022EC
:1009DC004FF48061434801F0DAF97EE001224FF4D4
:1009EC008051404801F0D3F901224FF400513D48A9
:1009FC0001F0CDF901224FF400613A4801F0C7F93A
:100A0C0001224FF48061374801F0C1F900228021A6
:100A1C00344801F0BCF900224FF48071314801F0E8
:100A2C00B6F900224FF400712E4801F0B0F954E0F1
:100A3C00002280212B4801F0AAF900224FF480718A
:100A4C00284801F0A4F900224FF40071254801F068
:100A5C009EF900224FF48051224801F098F90022AF
:100A6C004FF400511F4801F092F900224FF400613D
:100A7C001C4801F08CF900224FF48061194801F0F8
:100A8C0086F92AE001224FF40061164801F07FF943
:100A9C0000228021134801F07AF900224FF4807172
:100AAC00104801F074F900224FF400710D4801F068
:100ABC006EF900224FF480510A4801F068F90022C7
:100ACC004FF40051074801F062F900224FF48061A5
:100ADC00044801F05CF900E000BF00BF0837BD46D8
:100AEC0080BD00BF0008014080B500AF0820FFF7B3
:100AFC002FFE4FF47A7000F087FEFFF7F9FD01220C
:100B0C004FF6FF71044801F042F94FF47A7000F08F
:100B1C007BFE00BF80BD00BF0008014080B400AF69
:100B2C00084B1B68084A1360084B1B68084A136083
:100B3C00084B00221A70084B02221A7000BFBD46E7
:100B4C0080BC70478800002004000020900000202A
:100B5C0008000020620000200C00002080B500AFCF
:100B6C009C4B1B68013B9B4A13609B4B1B68013BD6
:100B7C00994A1360994B1B78022B61D0022B00F31E
:100B8C008C80002B02D0012B2DD086E0002240213E
:100B9C00934801F0FCF801228021914801F0F7F80C
:100BAC0001224FF480718E4801F0F1F8894B1B68DB
:100BBC00002B74DA8B4B1B68013B864A1360874B06
:100BCC0002221A7001224021854801F0E0F801222E
:100BDC008021834801F0DBF800224FF480718048BB
:100BEC0001F0D5F85BE0012240217D4801F0CFF8FF
:100BFC00002280217A4801F0CAF801224FF480715A
:100C0C00774801F0C4F8734B1B68002B49DA764B1C
:100C1C001B68013B6F4A1360704B00221A70002254
:100C2C0040216F4801F0B3F8012280216C4801F09B
:100C3C00AEF801224FF48071694801F0A8F830E059
:100C4C0001224021664801F0A2F80122802164486B
:100C5C0001F09DF800224FF48071614801F097F883
:100C6C005C4B1B68002B1EDA604B1B68013B594A1E
:100C7C0013605A4B01221A7001224021584801F08E
:100C8C0086F800228021564801F081F801224FF4A9
:100C9C008071534801F07BF805E000BF04E000BF11
:100CAC0002E000BF00E000BF514B1B78022B5DD06F
:100CBC00022B00F38680002B02D0012B2BD080E07E
:100CCC0000220821464801F062F801221021444814
:100CDC0001F05DF801222021414801F058F83E4B0B
:100CEC001B68002B6FDA3F4B1B68013B3A4A1360C1
:100CFC003F4B02221A7001220821394801F047F8B3
:100D0C0001221021364801F042F8002220213448FB
:100D1C0001F03DF857E001220821314801F037F885
:100D2C00002210212E4801F032F8012220212C48FB
:100D3C0001F02DF8284B1B68002B46DA2A4B1B6858
:100D4C00013B254A13602A4B00221A70002208210D
:100D5C00234801F01CF801221021214801F017F85A
:100D6C00012220211E4801F012F82EE00122082158
:100D7C001B4801F00CF801221021194801F007F86A
:100D8C0000222021164801F002F8134B1B68002B9F
:100D9C001DDA164B1B68013B0F4A1360144B0122E2
:100DAC001A70012208210E4800F0F1FF00221021D8
:100DBC000B4800F0ECFF01222021094800F0E7FF6E
:100DCC0005E000BF04E000BF02E000BF00E000BF90
:100DDC0000BF80BD0400002008000020620000203D
:100DEC00000C01409000002088000020980000209A
:100DFC000C00002080B400AF104B1B68013B032B90
:100E0C0016D801A252F823F0250E00082B0E00086C
:100E1C00310E0008370E0008094B1B680AE0094B1D
:100E2C001B6807E0084B1B6804E0084B1B6801E0DB
:100E3C0000BF00231846BD4680BC70470000002050
:100E4C00040000209C0000208C0000209400002056
:100E5C0080B400AF104B1B68013B032B16D801A2CA
:100E6C0052F823F0810E0008870E00088D0E000842
:100E7C00930E0008094B1B680AE0094B1B6807E03E
:100E8C00084B1B6804E0084B1B6801E000BF002303
:100E9C001846BD4680BC70470000002008000020AA
:100EAC009C0000208C0000209400002080B500AF36
:100EBC004C4B1B68013B032B00F2898001A252F8BA
:100ECC0023F000BFE10E0008F70E0008430F0008E6
:100EDC008F0F000800F0E0FB0346002B79D0FA20BE
:100EEC0000F034FBFFF73AFE73E000F0D5FB03464D
:100EFC00002B70D0C82000F029FB40213A4800F0AC
:100F0C005EFF0821384800F05AFF01228021364844
:100F1C0000F03DFF01224FF48071334800F037FFA1
:100F2C0001221021304800F032FF012220212E48EE
:100F3C0000F02DFF4FE000F0AFFB0346002B4CD030
:100F4C00C82000F003FB8021274800F038FF102157
:100F5C00254800F034FF01224021234800F017FF00
:100F6C0001224FF48071204800F011FF012208216A
:100F7C001D4800F00CFF012220211B4800F007FF48
:100F8C002BE000F089FB0346002B28D0C82000F092
:100F9C00DDFA4FF48071144800F011FF2021124843
:100FAC0000F00DFF012280210F4800F0F0FE01221D
:100FBC0040210D4800F0EBFE012210210A4800F000
:100FCC00E6FE01220821084800F0E1FE07E000BF20
:100FDC0006E000BF04E000BF02E000BF00E000BF7D
:100FEC0000BF80BD00000020000C014080B500AFA8
:100FFC00724B1B68042B00F2DD8001A252F823F027
:10100C002110000873100008CF10000821110008EF
:10101C007D11000800221021694800F0B8FE002262
:10102C000821674800F0B3FE00220421644800F058
:10103C00AEFE00220221624800F0A9FE012201212D
:10104C005F4800F0A4FEFFF7D5FE03465D4A82FB25
:10105C0003129210DB17D31A1846FFF779FB574B84
:10106C0001221A60A7E000220121554800F08FFEF2
:10107C0000221021524800F08AFE0022082150481C
:10108C0000F085FE002204214D4800F080FE012274
:10109C0002214B4800F07BFEFFF7ACFE0146494BAA
:1010AC0083FB01239A10CB17D21A13469B001344CF
:1010BC005B00CA1A1046FFF74BFB404B02221A602A
:1010CC0079E0002202213E4800F061FE002201215D
:1010DC003B4800F05CFE00221021394800F057FE1E
:1010EC0000220821364800F052FE01220421344827
:1010FC0000F04DFEFFF7ACFE0346324A82FB0312B2
:10110C009210DB17D31A1846FFF722FB2B4B032246
:10111C001A6050E000220421294800F038FE002219
:10112C000221274800F033FE00220121244800F060
:10113C002EFE00221021224800F029FE0122082157
:10114C001F4800F024FEFFF783FE01461D4B83FB76
:10115C0001239A10CB17D21A13469B0013445B0041
:10116C00CA1A1046FFF7F4FA144B04221A6022E054
:10117C0000220821124800F00AFE00220421104827
:10118C0000F005FE002202210D4800F000FE0022B6
:10119C0001210B4800F0FBFD01221021084800F052
:1011AC00F6FD094B1B681846FFF7D2FA034B0022D9
:1011BC001A6000E000BF00BF80BD00BF64000020CB
:1011CC0000080140676666660000002080B500AF2D
:1011DC0000F0B8FA00F03CF800F0C2F800F074F837
:1011EC00194801F031FAFFF77FFCFFF725F9FEF7FC
:1011FC00A7FF012000F0AAF9012000F0BBF90120A3
:10120C0000F0CCF9012000F0DDF9FEF7C1FF00F091
:10121C0057FA0346002B04D0FFF7E8FE012000F03C
:10122C00BDF9FFF743FEFFF799F800F03FFA0346CC
:10123C00002BEAD02021054800F0C1FD4FF4FA70D4
:10124C0000F098F9E1E700BFA00000200008014081
:10125C0080B590B000AF07F1180328220021184682
:10126C0001F0A2FD3B1D00221A605A609A60DA6000
:10127C001A610223BB610123BB621023FB620023B2
:10128C007B6307F11803184600F0B2FD0346002BF0
:10129C0001D000F0C7F80F237B600023BB60002354
:1012AC00FB6000233B6100237B613B1D0021184642
:1012BC0001F01EF80346002B01D000F0B3F800BF7C
:1012CC004037BD4680BD000080B586B000AF07F149
:1012DC00080300221A605A609A60DA603B460022CA
:1012EC001A605A601D4B4FF080421A601B4B40F243
:1012FC001F325A60194B00229A60184B0922DA608F
:10130C00164B00221A61154B00229A61134801F00A
:10131C004BF90346002B01D000F084F84FF48053B6
:10132C00BB6007F1080319460C4801F0C9FA0346E3
:10133C00002B01D000F076F800233B6000237B608B
:10134C003B461946054801F0A1FC0346002B01D091
:10135C0000F068F800BF1837BD4680BDA000002023
:10136C0080B586B000AF07F1080300221A605A60FE
:10137C009A60DA60284B9B69274A43F00403936117
:10138C00254B9B6903F004037B607B68224B9B69B4
:10139C00214A43F0080393611F4B9B6903F0080338
:1013AC003B603B68002243F6BF711C4800F0EFFC29
:1013BC0000224FF4FC711A4800F0E9FC43F6BF73AD
:1013CC00BB600123FB6000233B6102237B6107F1BF
:1013DC0008031946114800F049FB0723BB600023A2
:1013EC00FB6000233B6107F1080319460C4800F031
:1013FC003DFB4FF4FC73BB600123FB6000233B619E
:10140C0002237B6107F108031946054800F02EFB07
:10141C0000BF1837BD4680BD0010024000080140D7
:10142C00000C014080B400AF72B600BFFEE70000B4
:10143C0080B485B000AF154B9B69144A43F001038F
:10144C009361124B9B6903F00103BB60BB680F4BAC
:10145C00DB690E4A43F08053D3610C4BDB6903F01C
:10146C0080537B607B680A4B5B68FB60FB6823F0F6
:10147C00E063FB60FB6843F08063FB60044AFB683D
:10148C00536000BF1437BD4680BC7047001002404B
:10149C000000014080B584B000AF78607B681B68A9
:1014AC00B3F1804F13D10C4BDB690B4A43F00103B2
:1014BC00D361094BDB6903F00103FB60FB6800227D
:1014CC0000211C2000F09BFA1C2000F0B4FA00BF95
:1014DC001037BD4680BD00BF0010024080B400AF85
:1014EC00FEE780B400AFFEE780B400AFFEE780B447
:1014FC0000AFFEE780B400AFFEE780B400AF00BFE2
:10150C00BD4680BC704780B400AF00BFBD4680BCF8
:10151C00704780B400AF00BFBD4680BC704780B53B
:10152C0000AF00F055F900BF80BD000080B500AFE2
:10153C00024801F0D5F800BF80BD00BFA00000201C
:10154C0080B400AF00BFBD4680BC704780B483B090
:10155C0000AF7860054A7B681360054B00221A6067
:10156C0000BF0C37BD4680BC704700BF6800002030
:10157C006C00002080B483B000AF7860054A7B68B3
:10158C001360054B00221A6000BF0C37BD4680BCAF
:10159C00704700BF700000207400002080B483B03E
:1015AC0000AF7860054A7B681360054B00221A6017
:1015BC0000BF0C37BD4680BC704700BF78000020D0
:1015CC007C00002080B483B000AF7860054A7B6853
:1015DC001360054B00221A6000BF0C37BD4680BC5F
:1015EC00704700BF800000208400002080B400AF52
:1015FC00214B1B68002B0BDD1F4B1B68013B1E4A4C
:10160C0013601D4B1B68002B02D11C4B01221A606E
:10161C001B4B1B68002B0BDD194B1B68013B184A3D
:10162C001360174B1B68002B02D1164B01221A605A
:10163C00154B1B68002B0BDD134B1B68013B124A2F
:10164C001360114B1B68002B02D1104B01221A6046
:10165C000F4B1B68002B0BDD0D4B1B68013B0C4A21
:10166C0013600B4B1B68002B02D10A4B01221A6032
:10167C0000BFBD4680BC7047680000206C00002095
:10168C007000002074000020780000207C000020F6
:10169C00800000208400002080B400AF024B1B6847
:1016AC001846BD4680BC70476C00002080B400AF6B
:1016BC00024B1B681846BD4680BC70477400002066
:1016CC0080B400AF024B1B681846BD4680BC704707
:1016DC007C00002080B582B000AF7860FFF786FFF9
:1016EC007B681B68B3F1804F01D1FEF7EFFE00BFA2
:1016FC000837BD4680BD0000FFF722FF0B480C49A0
:10170C000C4A002302E0D458C4500433C4188C4251
:10171C00F9D3094A094C002301E013600432A242B8
:10172C00FBD301F01DFBFFF751FD704700000020BB
:10173C001C000020082E00081C000020EC000020DB
:10174C00FEE7000080B500AF084B1B68074A43F06A
:10175C0010031360032000F047F90F2000F008F885
:10176C00FFF766FE0023184680BD00BF0020024034
:10177C0080B582B000AF7860124B1A68124B1B78A0
:10178C0019464FF47A73B3FBF1F3B2FBF3F318463B
:10179C0000F05FF90346002B01D001230EE07B68BB
:1017AC000F2B0AD8002279684FF0FF3000F027F990
:1017BC00064A7B681360002300E0012318460837B3
:1017CC00BD4680BD10000020180000201400002031
:1017DC0080B400AF054B1B781A46054B1B681344AD
:1017EC00034A136000BFBD4680BC70471800002040
:1017FC00E800002080B400AF024B1B681846BD46C1
:10180C0080BC7047E800002080B584B000AF7860E1
:10181C00FFF7F0FFB8607B68FB60FB68B3F1FF3F3C
:10182C0005D00A4B1B781A46FB681344FB6000BFBB
:10183C00FFF7E0FF0246BB68D31AFA689A42F7D862
:10184C0000BF00BF1037BD4680BD00BF1800002090
:10185C0080B485B000AF78607B6803F00703FB6051
:10186C000C4BDB68BB60BA684FF6FF031340BB60E0
:10187C00FB681A02BB68134343F0BF6343F40033A5
:10188C00BB60044ABB68D36000BF1437BD4680BC44
:10189C00704700BF00ED00E080B400AF044BDB6884
:1018AC001B0A03F007031846BD4680BC704700BFF7
:1018BC0000ED00E080B483B000AF0346FB7197F9F4
:1018CC000730002B0BDBFB7903F01F02064997F95D
:1018DC0007305B09012000FA02F241F8232000BF17
:1018EC000C37BD4680BC704700E100E080B483B08B
:1018FC0000AF03463960FB7197F90730002B0ADB08
:10190C003B68DAB20C4997F907301201D2B20B449A
:10191C0083F800230AE03B68DAB20849FB7903F04C
:10192C000F03043B1201D2B20B441A7600BF0C37E2
:10193C00BD4680BC704700BF00E100E000ED00E058
:10194C0080B489B000AFF860B9607A60FB6803F0CE
:10195C000703FB61FB69C3F10703042B28BF0423B6
:10196C00BB61FB690433062B02D9FB69033B00E026
:10197C0000237B614FF0FF32BB6902FA03F3DA43B9
:10198C00BB681A407B699A404FF0FF317B6901FAC2
:10199C0003F3D9437B680B40134318462437BD46E9
:1019AC0080BC704780B582B000AF78607B68013B2B
:1019BC00B3F1807F01D301230FE00A4A7B68013B1E
:1019CC0053600F214FF0FF30FFF790FF054B0022C3
:1019DC009A60044B07221A60002318460837BD464C
:1019EC0080BD00BF10E000E080B582B000AF786031
:1019FC007868FFF72DFF00BF0837BD4680BD80B566
:101A0C0086B000AF0346B9607A60FB7300237B613C
:101A1C00FFF742FF78617A68B9687869FFF790FF41
:101A2C00024697F90F3011461846FFF75FFF00BFCB
:101A3C001837BD4680BD80B582B000AF0346FB7140
:101A4C0097F907301846FFF735FF00BF0837BD463A
:101A5C0080BD80B582B000AF78607868FFF7A2FFD8
:101A6C00034618460837BD4680BD000080B48BB0D5
:101A7C0000AF7860396000237B6200233B6248E151
:101A8C0001227B6A02FA03F3FB613B681B68FA696B
:101A9C001340BB61BA69FB699A4240F037813B68DD
:101AAC005B68A34A93425ED0A14A934275D8A14A7F
:101ABC00934258D09F4A93426FD89F4A934252D038
:101ACC009D4A934269D89D4A93424CD09B4A93427B
:101ADC0063D89B4A934246D0994A93425DD8122BC5
:101AEC002AD8122B59D801A252F823F0731B0008E4
:101AFC004D1B00085F1B0008A11B0008A71B00085A
:101B0C00A71B0008A71B0008A71B0008A71B0008A1
:101B1C00A71B0008A71B0008A71B0008A71B000891
:101B2C00A71B0008A71B0008A71B0008A71B000881
:101B3C00551B0008691B0008824A934213D02CE005
:101B4C003B68DB683B6229E03B68DB6804333B6243
:101B5C0024E03B68DB6808333B621FE03B68DB68D2
:101B6C000C333B621AE03B689B68002B02D10423C8
:101B7C003B6213E03B689B68012B05D108233B6259
:101B8C007B68FA691A6109E008233B627B68FA6991
:101B9C005A6103E000233B6200E000BFBB69FF2BEE
:101BAC0001D87B6801E07B6804337B61BB69FF2B48
:101BBC0002D87B6A9B0002E07B6A083B9B003B617E
:101BCC007B691A680F213B6901FA03F3DB431A4066
:101BDC00396A3B6901FA03F31A437B691A603B6863
:101BEC005B6803F08053002B00F09080564B9B6990
:101BFC00554A43F001039361534B9B6903F0010376
:101C0C00BB60BB68514A7B6A9B08023352F8233095
:101C1C00FB607B6A03F003039B000F2202FA03F3C1
:101C2C00DB43FA681340FB607B68494A93420DD052
:101C3C007B68484A934207D07B68474A934201D15C
:101C4C00022304E0032302E0012300E000237A6A6C
:101C5C0002F0030292009340FA681343FB603B4985
:101C6C007B6A9B080233FA6841F823203B685B6867
:101C7C0003F48013002B06D0384B9A683749BB69A4
:101C8C0013438B6006E0354B9A68BB69DB433349E1
:101C9C0013408B603B685B6803F40013002B06D089
:101CAC002E4BDA682D49BB691343CB6006E02B4BF6
:101CBC00DA68BB69DB4329491340CB603B685B683E
:101CCC0003F40033002B06D0244B5A682349BB691C
:101CDC0013434B6006E0214B5A68BB69DB431F4939
:101CEC0013404B603B685B6803F48033002B06D0D9
:101CFC001A4B1A681949BB6913430B6006E0174B62
:101D0C001A68BB69DB43154913400B607B6A0133CE
:101D1C007B623B681A687B6A22FA03F3002B7FF420
:101D2C00AFAE00BF00BF2C37BD4680BC704700BFB4
:101D3C0000003210000031100000221000002110B1
:101D4C0000001210000011100010024000000140B1
:101D5C0000080140000C014000100140000401404B
:101D6C0080B485B000AF78600B467B807B689A6846
:101D7C007B881340002B02D00123FB7301E000236E
:101D8C00FB73FB7B18461437BD4680BC704780B490
:101D9C0083B000AF78600B467B8013467B707B78FA
:101DAC00002B03D07A887B681A6103E07B881A04C5
:101DBC007B681A6100BF0C37BD4680BC704780B48D
:101DCC0085B000AF78600B467B807B68DB68FB607E
:101DDC007A88FB6813401A04FB68D9437B880B4054
:101DEC001A437B681A6100BF1437BD4680BC70472C
:101DFC0080B586B000AF78607B68002B01D10123E1
:101E0C006CE27B681B6803F00103002B00F08780F9
:101E1C00924B5B6803F00C03042B0CD08F4B5B686C
:101E2C0003F00C03082B12D18C4B5B6803F480334A
:101E3C00B3F5803F0BD1894B1B6803F40033002BA7
:101E4C006CD07B685B68002B68D1012346E27B6811
:101E5C005B68B3F5803F06D1804B1B687F4A43F427
:101E6C00803313602EE07B685B68002B0CD17B4BBE
:101E7C001B687A4A23F480331360784B1B68774ACB
:101E8C0023F4802313601DE07B685B68B3F5A02FFF
:101E9C000CD1724B1B68714A43F4802313606F4B57
:101EAC001B686E4A43F4803313600BE06B4B1B686A
:101EBC006A4A23F480331360684B1B68674A23F427
:101ECC00802313607B685B68002B13D0FFF792FCB8
:101EDC00386108E0FFF78EFC02463B69D31A642B8D
:101EEC0001D90323FAE15D4B1B6803F40033002B8B
:101EFC00F0D014E0FFF77EFC386108E0FFF77AFCC5
:101F0C0002463B69D31A642B01D90323E6E1534BF8
:101F1C001B6803F40033002BF0D100E000BF7B689A
:101F2C001B6803F00203002B63D04C4B5B6803F07F
:101F3C000C03002B0BD0494B5B6803F00C03082BF4
:101F4C001CD1464B5B6803F48033002B16D1434BFA
:101F5C001B6803F00203002B05D07B681B69012B67
:101F6C0001D00123BAE13D4B1B6823F0F8027B68DA
:101F7C005B69DB00394913430B603AE07B681B69F2
:101F8C00002B20D0364B01221A60FFF733FC38614E
:101F9C0008E0FFF72FFC02463B69D31A022B01D94C
:101FAC0003239BE12D4B1B6803F00203002BF0D0A5
:101FBC002A4B1B6823F0F8027B685B69DB0027491E
:101FCC0013430B6015E0264B00221A60FFF712FC3E
:101FDC00386108E0FFF70EFC02463B69D31A022B6E
:101FEC0001D903237AE11D4B1B6803F00203002B7C
:101FFC00F0D17B681B6803F00803002B3AD07B6898
:10200C009B69002B19D0174B01221A60FFF7F2FBCA
:10201C00386108E0FFF7EEFB02463B69D31A022B4E
:10202C0001D903235AE10D4B5B6A03F00203002B29
:10203C00F0D0012000F09AFA1CE00A4B00221A6042
:10204C00FFF7D8FB38610FE0FFF7D4FB02463B6982
:10205C00D31A022B08D9032340E100BF0010024021
:10206C0000004242800442429E4B5B6A03F0020332
:10207C00002BE9D17B681B6803F00403002B00F0F4
:10208C00A6800023FB75974BDB6903F08053002B74
:10209C000DD1944BDB69934A43F08053D361914B40
:1020AC00DB6903F08053BB60BB680123FB758E4B6F
:1020BC001B6803F48073002B18D18B4B1B688A4A66
:1020CC0043F480731360FFF795FB386108E0FFF76A
:1020DC0091FB02463B69D31A642B01D90323FDE023
:1020EC00814B1B6803F48073002BF0D07B68DB689A
:1020FC00012B06D17B4B1B6A7A4A43F00103136216
:10210C002DE07B68DB68002B0CD1764B1B6A754A83
:10211C0023F001031362734B1B6A724A23F004030E
:10212C0013621CE07B68DB68052B0CD16D4B1B6AC2
:10213C006C4A43F0040313626A4B1B6A694A43F00E
:10214C00010313620BE0674B1B6A664A23F0010321
:10215C001362644B1B6A634A23F0040313627B68AB
:10216C00DB68002B15D0FFF745FB38610AE0FFF761
:10217C0041FB02463B69D31A41F28832934201D9A2
:10218C000323ABE0574B1B6A03F00203002BEED08A
:10219C0014E0FFF72FFB38610AE0FFF72BFB024638
:1021AC003B69D31A41F28832934201D9032395E05B
:1021BC004C4B1B6A03F00203002BEED1FB7D012B71
:1021CC0005D1484BDB69474A23F08053D3617B68C8
:1021DC00DB69002B00F08180424B5B6803F00C0341
:1021EC00082B61D07B68DB69022B46D13F4B002268
:1021FC001A60FFF7FFFA386108E0FFF7FBFA0246B6
:10220C003B69D31A022B01D9032367E0354B1B68BA
:10221C0003F00073002BF0D17B681B6AB3F5803F91
:10222C0008D1304B5B6823F400327B689B682D49E6
:10223C0013434B602B4B5B6823F474127B68196A55
:10224C007B685B6A0B43274913434B60274B012286
:10225C001A60FFF7CFFA386108E0FFF7CBFA0246B5
:10226C003B69D31A022B01D9032337E01D4B1B68A2
:10227C0003F00073002BF0D02FE01C4B00221A60EF
:10228C00FFF7B8FA386108E0FFF7B4FA02463B6989
:10229C00D31A022B01D9032320E0124B1B6803F045
:1022AC000073002BF0D118E07B68DB69012B01D1A6
:1022BC00012313E00B4B5B68FB60FB6803F480327B
:1022CC007B681B6A9A4206D1FB6803F470127B6828
:1022DC005B6A9A4201D0012300E0002318461837AC
:1022EC00BD4680BD001002400070004060004242BC
:1022FC0080B584B000AF786039607B68002B01D169
:10230C000123D0E06A4B1B6803F007033A689A423A
:10231C0010D9674B1B6823F0070265493B681343D0
:10232C000B60634B1B6803F007033A689A4201D0B9
:10233C000123B8E07B681B6803F00203002B20D05C
:10234C007B681B6803F00403002B05D0594B5B68BA
:10235C00584A43F4E06353607B681B6803F008033E
:10236C00002B05D0534B5B68524A43F460535360C7
:10237C00504B5B6823F0F0027B689B684D4913431C
:10238C004B607B681B6803F00103002B40D07B681B
:10239C005B68012B07D1474B1B6803F40033002B00
:1023AC0015D101237FE07B685B68022B07D1414B81
:1023BC001B6803F00073002B09D1012373E03D4B24
:1023CC001B6803F00203002B01D101236BE0394B96
:1023DC005B6823F003027B685B68364913434B60F0
:1023EC00FFF708FAF8600AE0FFF704FA0246FB6808
:1023FC00D31A41F28832934201D9032353E02D4B77
:10240C005B6803F00C027B685B689B009A42EBD123
:10241C00274B1B6803F007033A689A4210D2244BEF
:10242C001B6823F0070222493B6813430B60204BC7
:10243C001B6803F007033A689A4201D0012332E08B
:10244C007B681B6803F00403002B08D0194B5B68F6
:10245C0023F4E0627B68DB68164913434B607B68AE
:10246C001B6803F00803002B09D0124B5B6823F4A4
:10247C0060527B681B69DB000E4913434B6000F014
:10248C0021F802460B4B5B681B0903F00F030A494A
:10249C00CB5C22FA03F3094A1360094B1B681846FC
:1024AC00FFF766F9002318461037BD4680BD00BF04
:1024BC000020024000100240DC2D0008100000201B
:1024CC001400002080B487B000AF0023FB60002311
:1024DC00BB6000237B6100237B6000233B611E4BB0
:1024EC005B68FB60FB6803F00C03042B02D0082B29
:1024FC0003D027E0194B3B6127E0FB689B0C03F0F2
:10250C000F03174AD35C7B60FB6803F48033002B0A
:10251C0010D0114B5B685B0C03F00103114AD35CC8
:10252C00BB607B680D4A02FB03F2BB68B2FBF3F3A2
:10253C007B6104E07B680C4A02FB03F37B617B69E3
:10254C003B6102E0054B3B6100BF3B6918461C3701
:10255C00BD4680BC704700BF0010024000127A00DC
:10256C00EC2D0008FC2D000800093D0080B485B05E
:10257C0000AF78600A4B1B680A4AA2FB03235B0A74
:10258C007A6802FB03F3FB6000BFFB685A1EFA601B
:10259C00002BF9D100BF00BF1437BD4680BC70477B
:1025AC0010000020D34D621080B582B000AF78606F
:1025BC007B68002B01D1012341E07B6893F83D300F
:1025CC00DBB2002B06D17B68002283F83C207868B4
:1025DC00FEF760FF7B68022283F83D207B681A6857
:1025EC007B6804331946104600F056FA7B680122CA
:1025FC0083F846207B68012283F83E207B68012209
:10260C0083F83F207B68012283F840207B680122FD
:10261C0083F841207B68012283F842207B680122E9
:10262C0083F843207B68012283F844207B680122D5
:10263C0083F845207B68012283F83D20002318464F
:10264C000837BD4680BD000080B485B000AF78600F
:10265C007B6893F83D30DBB2012B01D0012335E0D0
:10266C007B68022283F83D207B681B68DA687B68F4
:10267C001B6842F00102DA607B681B68164A9342C1
:10268C0009D07B681B68B3F1804F04D07B681B6852
:10269C00124A934211D17B681B689B6803F00703B5
:1026AC00FB60FB68062B10D07B681B681A687B6884
:1026BC001B6842F001021A6007E07B681B681A680D
:1026CC007B681B6842F001021A600023184614371D
:1026DC00BD4680BC704700BF002C01400004004088
:1026EC0080B584B000AF78607B681B68DB68FB60EA
:1026FC007B681B681B69BB60BB6803F00203002B83
:10270C0020D0FB6803F00203002B1BD07B681B68F6
:10271C006FF002021A617B6801221A777B681B68D2
:10272C009B6903F00303002B03D0786800F098F941
:10273C0005E0786800F08BF9786800F09AF97B680E
:10274C0000221A77BB6803F00403002B20D0FB682F
:10275C0003F00403002B1BD07B681B686FF0040292
:10276C001A617B6802221A777B681B689B6903F4E9
:10277C004073002B03D0786800F072F905E078689C
:10278C0000F065F9786800F074F97B6800221A771C
:10279C00BB6803F00803002B20D0FB6803F0080390
:1027AC00002B1BD07B681B686FF008021A617B68DA
:1027BC0004221A777B681B68DB6903F00303002B88
:1027CC0003D0786800F04CF905E0786800F03FF928
:1027DC00786800F04EF97B6800221A77BB6803F02A
:1027EC001003002B20D0FB6803F01003002B1BD030
:1027FC007B681B686FF010021A617B6808221A77DD
:10280C007B681B68DB6903F44073002B03D078688A
:10281C0000F026F905E0786800F019F9786800F006
:10282C0028F97B6800221A77BB6803F00103002BA0
:10283C000CD0FB6803F00103002B07D07B681B68EE
:10284C006FF001021A617868FEF744FFBB6803F071
:10285C008003002B0CD0FB6803F08003002B07D007
:10286C007B681B686FF080021A61786800F06FFA61
:10287C00BB6803F04003002B0CD0FB6803F0400353
:10288C00002B07D07B681B686FF040021A617868D8
:10289C0000F0F8F8BB6803F02003002B0CD0FB68A9
:1028AC0003F02003002B07D07B681B686FF020021D
:1028BC001A61786800F042FA00BF1037BD4680BD3F
:1028CC0080B584B000AF786039600023FB737B68FF
:1028DC0093F83C30012B01D10223B4E07B68012238
:1028EC0083F83C207B68022283F83D207B681B68C0
:1028FC009B68BB60BB6823F07703BB60BB6823F4A9
:10290C007F43BB607B681B68BA689A603B681B6836
:10291C00B3F5005F3ED0B3F5005F00F28780B3F5EE
:10292C00805F00F08680B3F5805F7FD8702B1AD063
:10293C00702B7BD8602B50D0602B77D8502B3CD091
:10294C00502B73D8402B58D0402B6FD8302B64D0E1
:10295C00302B6BD8202B60D0202B67D8002B5CD071
:10296C00102B5AD062E07B6818683B6899683B680A
:10297C005A683B68DB6800F06AF97B681B689B68E7
:10298C00BB60BB6843F07703BB607B681B68BA68AD
:10299C009A604FE07B6818683B6899683B685A6896
:1029AC003B68DB6800F053F97B681B689A687B68AE
:1029BC001B6842F480429A603CE07B6818683B6874
:1029CC0059683B68DB681A4600F0CAF87B681B68DC
:1029DC005021184600F021F92CE07B6818683B6800
:1029EC0059683B68DB681A4600F0E8F87B681B689E
:1029FC006021184600F011F91CE07B6818683B68F0
:102A0C0059683B68DB681A4600F0AAF87B681B68BB
:102A1C004021184600F001F90CE07B681A683B680D
:102A2C001B681946104600F0F8F803E00123FB730D
:102A3C0000E000BF7B68012283F83D207B68002208
:102A4C0083F83C20FB7B18461037BD4680BD80B414
:102A5C0083B000AF786000BF0C37BD4680BC7047B8
:102A6C0080B483B000AF786000BF0C37BD4680BC2B
:102A7C00704780B483B000AF786000BF0C37BD46A0
:102A8C0080BC704780B483B000AF786000BF0C3757
:102A9C00BD4680BC7047000080B485B000AF786044
:102AAC0039607B681B68FB607B682B4A934207D0BC
:102ABC007B68B3F1804F03D07B68284A934208D1DE
:102ACC00FB6823F07003FB603B685B68FA68134398
:102ADC00FB607B68204A934207D07B68B3F1804F40
:102AEC0003D07B681D4A934208D1FB6823F44073E2
:102AFC00FB603B68DB68FA681343FB60FB6823F000
:102B0C0080023B685B691343FB607B68FA681A6060
:102B1C003B689A687B68DA623B681A687B689A62E1
:102B2C007B680D4A934203D13B681A697B681A6330
:102B3C007B6801225A617B681B6903F00103002B3F
:102B4C0005D07B681B6923F001027B681A6100BF0A
:102B5C001437BD4680BC7047002C01400004004077
:102B6C0080B487B000AFF860B9607A60FB681B6A0C
:102B7C007B61FB681B6A23F00102FB681A62FB682D
:102B8C009B693B613B6923F0F0033B617B681B0154
:102B9C003A6913433B617B6923F00A037B617A69D1
:102BAC00BB6813437B61FB683A699A61FB687A697D
:102BBC001A6200BF1C37BD4680BC704780B487B01A
:102BCC0000AFF860B9607A60FB681B6A7B61FB68D8
:102BDC001B6A23F01002FB681A62FB689B693B615D
:102BEC003B6923F470433B617B681B033A691343D5
:102BFC003B617B6923F0A0037B61BB681B017A6995
:102C0C0013437B61FB683A699A61FB687A691A62C3
:102C1C0000BF1C37BD4680BC704780B485B000AF88
:102C2C00786039607B689B68FB60FB6823F07003FD
:102C3C00FB603A68FB68134343F00703FB607B6857
:102C4C00FA689A6000BF1437BD4680BC704780B4E8
:102C5C0087B000AFF860B9607A603B60FB689B6836
:102C6C007B617B6923F47F437B613B681A027B6841
:102C7C001A43BB6813437A6913437B61FB687A6917
:102C8C009A6000BF1C37BD4680BC704780B485B0CD
:102C9C0000AF786039607B6893F83C30012B01D130
:102CAC00022341E07B68012283F83C207B680222EE
:102CBC0083F83D207B681B685B68FB607B681B6846
:102CCC009B68BB60FB6823F07003FB603B681B6870
:102CDC00FA681343FB607B681B68FA685A607B6870
:102CEC001B68144A934209D07B681B68B3F1804F70
:102CFC0004D07B681B68104A93420CD1BB6823F04C
:102D0C008003BB603B685B68BA681343BB607B683D
:102D1C001B68BA689A607B68012283F83D207B6847
:102D2C00002283F83C20002318461437BD4680BC93
:102D3C00704700BF002C01400004004080B483B0F9
:102D4C0000AF786000BF0C37BD4680BC704780B4C4
:102D5C0083B000AF786000BF0C37BD4680BC7047B5
:102D6C0070B500260C4D0D4C641BA410A64209D165
:102D7C0000F022F800260A4D0A4C641BA410A6424F
:102D8C0005D170BD55F8043B98470136EEE755F870
:102D9C00043B98470136F2E7002E0008002E00088D
:102DAC00002E0008042E000803460244934200D172
:102DBC00704703F8011BF9E7F8B500BFF8BC08BC75
:102DCC009E467047F8B500BFF8BC08BC9E467047DD
:102DDC0000000000000000000102030406070809BF
:102DEC0002030405060708090A0B0C0D0E0F101040
:042DFC0001020000D0
:042E00003101000894
:042E04000D010008B4
:102E0800010000000F0000000C000000020000009C
:0C2E180000127A00100000000100000011
:0400000508001705D3
:00000001FF
